:020000040000fa
:080000000002040000000000f2
:020000040000fa
:04000800fa020000f8
:020000040000fa
:04000c000c030000e1
:020000040000fa
:0400100024030000c5
:020000040000fa
:0400140002030000e3
:020000040000fa
:0400180014030000cd
:020000040000fa
:04001c001c030000c1
:020000040000fa
:040020002c030000ad
:020000040000fa
:040024004e03000087
:020000040000fa
:040028004e03000083
:020000040000fa
:04002c004e0300007f
:020000040000fa
:040030004e0300007b
:020000040000fa
:040034004e03000077
:020000040000fa
:040038004e03000073
:020000040000fa
:04003c004e0300006f
:020000040000fa
:040040004e0300006b
:020000040000fa
:040044004e03000067
:020000040000fa
:040048004e03000063
:020000040000fa
:04004c004e0300005f
:020000040000fa
:040050004e0300005b
:020000040000fa
:040054004e03000057
:020000040000fa
:040058004e03000053
:020000040000fa
:04005c00ca0c0000ca
:020000040000fa
:040060004e0300004b
:020000040000fa
:040064004e03000047
:020000040000fa
:040068004e03000043
:020000040000fa
:04006c004e0300003f
:020000040000fa
:040070004e0300003b
:020000040000fa
:040074004e03000037
:020000040000fa
:040078004e03000033
:020000040000fa
:04007c004e0300002f
:020000040000fa
:040080004e0300002b
:020000040000fa
:040084004e03000027
:020000040000fa
:040088004e03000023
:020000040000fa
:04008c004e0300001f
:020000040000fa
:040090004e0300001b
:020000040000fa
:040094004e03000017
:020000040000fa
:040098004e03000013
:020000040000fa
:04009c004e0300000f
:020000040000fa
:0400a0004e0300000b
:020000040000fa
:0400a4004e03000007
:020000040000fa
:0400a8004e03000003
:020000040000fa
:0400ac004e030000ff
:020000040000fa
:0400b0004e030000fb
:020000040000fa
:0400b4004e030000f7
:020000040000fa
:0400b8004e030000f3
:020000040000fa
:0400bc004e030000ef
:020000040000fa
:0400c0004e030000eb
:020000040000fa
:0400c4004e030000e7
:020000040000fa
:0400c8004e030000e3
:020000040000fa
:0400cc004e030000df
:020000040000fa
:0400d0004e030000db
:020000040000fa
:0400d4004e030000d7
:020000040000fa
:0400d8004e030000d3
:020000040000fa
:0400dc004e030000cf
:020000040000fa
:0400e0004e030000cb
:020000040000fa
:0400e4004e030000c7
:020000040000fa
:0400e8004e030000c3
:020000040000fa
:0400ec004e030000bf
:020000040000fa
:0400f0004e030000bb
:020000040000fa
:0400f4004e030000b7
:020000040000fa
:0400f8004e030000b3
:020000040000fa
:0400fc004e030000af
:020000040000fa
:040100004e030000aa
:020000040000fa
:040104004e030000a6
:020000040000fa
:040108004e030000a2
:020000040000fa
:04010c004e0300009e
:020000040000fa
:040110004e0300009a
:020000040000fa
:040114004e03000096
:020000040000fa
:040118004e03000092
:020000040000fa
:04011c004e0300008e
:020000040000fa
:040120004e0300008a
:020000040000fa
:040124004e03000086
:020000040000fa
:040128004e03000082
:020000040000fa
:04012c004e0300007e
:020000040000fa
:040130004e0300007a
:020000040000fa
:040134004e03000076
:020000040000fa
:040138004e03000072
:020000040000fa
:04013c004e0300006e
:020000040000fa
:040140004e0300006a
:020000040000fa
:040144004e03000066
:020000040000fa
:040148004e03000062
:020000040000fa
:04014c004e0300005e
:020000040000fa
:040150004e0300005a
:020000040000fa
:040154004e03000056
:020000040000fa
:040158004e03000052
:020000040000fa
:04015c004e0300004e
:020000040000fa
:040160004e0300004a
:020000040000fa
:040164004e03000046
:020000040000fa
:040168004e03000042
:020000040000fa
:04016c004e0300003e
:020000040000fa
:040170004e0300003a
:020000040000fa
:040174004e03000036
:020000040000fa
:040178004e03000032
:020000040000fa
:04017c004e0300002e
:020000040000fa
:040180004e0300002a
:020000040000fa
:040184004e03000026
:020000040000fa
:040188004e03000022
:020000040000fa
:04018c004e0300001e
:020000040000fa
:040190004e0300001a
:020000040000fa
:040194004e03000016
:020000040000fa
:040198004e03000012
:020000040000fa
:04019c004e0300000e
:020000040000fa
:0401a0004e0300000a
:020000040000fa
:0401a4004e03000006
:020000040000fa
:0401a8004e03000002
:020000040000fa
:0401ac004e030000fe
:020000040000fa
:0401b0004e030000fa
:020000040000fa
:0401b4004e030000f6
:020000040000fa
:0401b8004e030000f2
:020000040000fa
:0401bc004e030000ee
:020000040000fa
:0401c0004e030000ea
:020000040000fa
:0401c4004e030000e6
:020000040000fa
:0401c8004e030000e2
:020000040000fa
:0401cc004e030000de
:020000040000fa
:0401d0004e030000da
:020000040000fa
:0401d4004e030000d6
:020000040000fa
:0401d8004e030000d2
:020000040000fa
:0401dc004e030000ce
:020000040000fa
:0401e0004e030000ca
:020000040000fa
:0401e4004e030000c6
:020000040000fa
:0401e8004e030000c2
:020000040000fa
:0401ec004e030000be
:020000040000fa
:0401f0004e030000ba
:020000040000fa
:0401f4004e030000b6
:020000040000fa
:0401f8004e030000b2
:020000040000fa
:0401fc004e030000ae
:020000040000fa
:040200004e030000a9
:020000040000fa
:040204004e030000a5
:020000040000fa
:040208004e030000a1
:020000040000fa
:04020c004e0300009d
:020000040000fa
:040210004e03000099
:020000040000fa
:040214004e03000095
:020000040000fa
:040218004e03000091
:020000040000fa
:04021c004e0300008d
:020000040000fa
:040220004e03000089
:020000040000fa
:040224004e03000085
:020000040000fa
:040228004e03000081
:020000040000fa
:04022c004e0300007d
:020000040000fa
:040230004e03000079
:020000040000fa
:040234004e03000075
:020000040000fa
:040238004e03000071
:020000040000fa
:04023c004e0300006d
:020000040000fa
:040240004e03000069
:020000040000fa
:040244004e03000065
:020000040000fa
:040248004e03000061
:020000040000fa
:04024c004e0300005d
:020000040000fa
:040250004e03000059
:020000040000fa
:040254004e03000055
:020000040000fa
:040258004e03000051
:020000040000fa
:04025c004e0300004d
:020000040000fa
:040260004e03000049
:020000040000fa
:040264004e03000045
:020000040000fa
:040268004e03000041
:020000040000fa
:04026c004e0300003d
:020000040000fa
:040270004e03000039
:020000040000fa
:040274004e03000035
:020000040000fa
:040278004e03000031
:020000040000fa
:04027c004e0300002d
:020000040000fa
:040280004e03000029
:020000040000fa
:100400000f1821000eff27000e01880000000000d9
:10041000000020000000e000020032000001200087
:1004200020028800140007009e0007000000e00082
:1004300003003a00a0d6200001002000020037008f
:100440000000200001002000810f70000100320038
:100450000f000700000020000000e0000200320052
:100460000000020000000000de08020000000000a2
:100470000040da000000fe00200020000000e00044
:1004800002003200100020009001880000000600e9
:10049000a1028800800478000000eb001f003700f4
:1004a000e284440054a0b4009905ba00e2844400f8
:1004b00054a0b4009906ba00e284440054a0b400e9
:1004c0000006eb00476fde00fd07b200ae018800ba
:1004d000636ce10003003a000ad801000000eb0061
:1004e0000e003700606ce10008003a00004deb00a0
:1004f0000a05e800020039003420ec000af0a000f0
:100500008b05e900f9ff3e00040037006168e10057
:10051000010032000086eb000b00070019c7ba008b
:100520001905ba000e04e00003003a000a00e000da
:10053000dbff3a0000000600fe07b200ae028800b2
:100540008a047800f5ff37000cd0a300e20f4d00bd
:100550001c00390089027800354dba000a05e80010
:10056000020039003420ec000af0a0008b05e900fd
:100570000f003200254dba000a05e80002003900dc
:100580003420ec000af0a0008b05e90008003200de
:100590000c00e0000600320015cdba000a05e800a4
:1005a000020039003420ec000af0a0008b05e900bd
:1005b0008984e80054a0b4000b00e000e2ff3a0098
:1005c000000006009902ba00055d78008b05e9007d
:1005d000f7ff3200c82ade00055d78008b05e900d0
:1005e000f3ff32000c00e000f1ff320019ddba0029
:1005f000eeff37003600f800c028a9000000eb002d
:10060000690507003600f8006b050700c048a9001f
:1006100010002000640507003600f800c068a9003b
:1006200020002000600507003600f800c088a900ff
:10063000300020005c0507003600f800c0a8a900c3
:1006400040002000580507003600f800c608a90041
:1006500070002000540507003600f8002146800095
:1006600000022000008060000000e0000300320073
:10067000c4a8a900900020004b0507002046800078
:10068000700060000000e00003003200c488a90090
:10069000a000200044050700ffff37000040da00fb
:0806a0000000fe00000005004f
:020000040000fa
:1006a8000000fa00c3e8a8000000000000000000f5
:1006b8000080fa0000000600ec00fa00889fbe00e7
:1006c8008a9fbe008c1f78001c00200000e02800d4
:1006d80011002000a30180000101780000007800cb
:1006e800a20188000c087800a301880013012000eb
:1006f80024e0280015002000a20180008500780071
:1007080004007800a101880003087800a20188008d
:100718000301200046e0280017002000a201800005
:100728008700780006007800a10188000308780097
:10073800a2018800b3ff2f0068e0280019002000fc
:10074800a20180008900780008007800a1018800d3
:1007580003087800a201880073fe2f008ae02800b1
:100768001b002000a20180008b0078000a0078009e
:10077800a101880003087800a2018800c3fe2f00a9
:10078800a1e02800010f780011002000110798004f
:10079800a20180009e0090001e007800a101880040
:1007a80003087800a2018800e3ff2f00c1e02800b9
:1007b800210798001100200031079800a20180004d
:1007c800be0090002e009000a10188000308780068
:1007d800a201880013002000e1e0280041079800ea
:1007e8001100200051079800a2018000de0090004f
:1007f8004e009000a101880003087800a20188003b
:1008080093ff2f0001e128006107980011002000e4
:1008180071079800a2018000fe0090006e00900011
:10082800a101880003087800a2018800a3ff2f0017
:1008380021e12800010f980011002000110f9800f5
:10084800a20180009e0890000e089000a101880077
:1008580003087800a20188008001eb0041e128002c
:10086800210f980011002000310f9800a20180008c
:10087800be0890002e089000a101880003087800a7
:10088800a20188008081eb0061e12800410f9800f7
:1008980011002000510f9800a2018000de0890008e
:1008a8004e089000a101880003087800a201880082
:1008b8007300200081e12800610f980011002000da
:1008c800710f9800a2018000fe0890006e08900049
:1008d800a101880003087800a2018800e300200035
:1008e800a1e12800011798001100200011179800b5
:1008f800a20180009e1090000e109000a1018800b7
:1009080003087800a2018800c3fe2f00c1e1280077
:10091800211798001100200031179800a2018000cb
:10092800be1090002e109000a101880003087800e6
:10093800a201880093fc2f00e1e1280041179800ec
:100948001100200051179800a2018000de109000cd
:100958004e109000a101880003087800a2018800c9
:10096800e3fe2f0001e22800611798001100200023
:1009780071179800a2018000fe1090006e10900080
:10098800a101880003087800a201880053fc2f0009
:1009980021e22800011f980011002000111f980073
:1009a800a20180009e1890000e189000a1018800f6
:1009b80003087800a201880073e72f0041e22800ad
:1009c800211f980011002000311f9800a20180000b
:1009d800be1890002e189000a10188000308780026
:1009e800a2018800b3d62f0061e22800411f9800b9
:1009f80011002000511f9800a2018000de1890000d
:100a08004e189000a101880003087800a201880010
:100a180043fc2f0081e22800611f9800110020008c
:100a2800711f9800a2018000fe1890006e189000b7
:100a3800a101880003087800a2018800634c200007
:100a4800a1e2280001279800110020001127980032
:100a5800a20180009e2090000e209000a101880035
:100a680003087800a2018800735c2000c1e2280016
:100a7800212798001100200031279800a20180004a
:100a8800be2090002e209000a10188000308780065
:100a9800a2018800f3ea2f00e1e22800412798002c
:100aa8001100200051279800a2018000de2090004c
:100ab8004e209000a101880003087800a201880058
:100ac80053652f0001e328006127980011002000da
:100ad80071279800a2018000fe2090006e209000ef
:100ae800a101880003087800a2018800f36d2f0097
:100af80021e32800012f980011002000112f9800f1
:100b0800a20180009e2890000e289000a101880074
:100b180003087800a2018800a3e12f0041e3280020
:100b2800212f980011002000312f9800a201800089
:100b3800be2890002e289000a101880003087800a4
:100b4800a201880023f72f0061e32800412f9800b5
:100b580011002000512f9800a2018000de2890008b
:100b68004e289000a101880003087800a20188009f
:100b7800b3882f0081e32800612f9800110020001e
:100b8800712f9800a2018000fe2890006e28900026
:100b9800a101880003087800a2018800f3852f00ce
:100ba800a1e32800013798001100200011379800b0
:100bb800a20180009e3090000e309000a1018800b4
:100bc80003087800a201880083922000c1e328006e
:100bd800213798001100200031379800a2018000c9
:100be800be3090002e309000a101880003087800e4
:100bf800a2018800b3cc2100e1e328004137980026
:100c08001100200051379800a2018000de309000ca
:100c18004e309000a101880003087800a2018800e6
:100c2800b3cc210001e428006137980011002000ae
:100c380071379800a2018000fe3090006e3090005d
:100c4800a101880003087800a2018800839220008f
:100c580021e42800013f980011002000113f98006e
:100c6800a20180009e3890000e389000a1018800f3
:100c780003087800a2018800f3852f0041e42800ca
:100c8800213f980011002000313f9800a201800008
:100c9800be3890002e389000a10188000308780023
:100ca800a2018800b3882f0061e42800413f980022
:100cb80011002000513f9800a2018000de3890000a
:100cc8004e389000a101880003087800a20188002e
:100cd80023f72f0081e42800613f980011002000cd
:100ce800713f9800a2018000fe3890006e38900095
:100cf800a101880003087800a2018800a3e12f0061
:100d0800a1e42800018798001100200011879800ad
:100d1800a20180009e8090000e809000a1018800b2
:100d280003087800a2018800f36d2f00c1e42800b1
:100d3800218798001100200031879800a2018000c7
:100d4800be8090002e809000a101880003087800e2
:100d5800a201880053652f00e1e42800418798002c
:100d68001100200051879800a2018000de809000c9
:100d78004e809000a101880003087800a201880035
:100d8800f3ea2f0001e52800618798001100200090
:100d980071879800a2018000fe8090006e8090000c
:100da800a101880003087800a2018800735c200074
:100db80021e52800018f980011002000118f98006c
:100dc800a20180009e8890000e889000a1018800f2
:100dd80003087800a2018800634c200041e5280040
:100de800218f980011002000318f9800a201800007
:100df800be8890002e889000a10188000308780022
:100e0800a201880043fc2f0061e52800418f98006b
:100e180011002000518f9800a2018000de88900008
:100e28004e889000a101880003087800a20188007c
:100e3800b3d62f0081e52800618f980011002000ab
:100e4800718f9800a2018000fe8890006e88900043
:100e5800a101880003087800a201880073e72f0029
:100e6800a1e528000197980011002000119798002b
:100e7800a20180009e9090000e909000a101880031
:100e880003087800a201880053fc2f00c1e5280060
:100e9800219798001100200031979800a201800046
:100ea800be9090002e909000a10188000308780061
:100eb800a2018800e3fe2f00e1e528004197980091
:100ec8001100200051979800a2018000de90900048
:100ed8004e909000a101880003087800a2018800c4
:100ee80093fc2f0001e6280061979800110020006c
:100ef80071979800a2018000fe9090006e9090007b
:100f0800a101880003087800a2018800c3fe2f0011
:100f180021e62800019f980011002000119f9800e9
:100f2800a20180009e9890000e989000a101880070
:100f380003087800a2018800e300200041e62800a9
:100f4800219f980011002000319f9800a201800085
:100f5800be9890002e989000a101880003087800a0
:100f6800a20188007300200061e62800419f9800d4
:100f780011002000519f9800a2018000de98900087
:100f88004e989000a101880003087800a20188000b
:100f98008081eb0081e62800619f98001100200005
:100fa800719f9800a2018000fe9890006e989000b2
:100fb800a101880003087800a20188008001eb00e5
:100fc800a1e6280001a798001100200011a79800a9
:100fd800a20180009ea090000ea09000a1018800b0
:100fe80003087800a2018800a3ff2f00c1e62800ab
:100ff80021a798001100200031a79800a2018000c5
:10100800bea090002ea09000a101880003087800df
:10101800a201880093ff2f00e1e6280041a798006d
:101028001100200051a79800a2018000dea09000c6
:101038004ea09000a101880003087800a201880052
:101048001300200001e7280061a798001100200084
:1010580071a79800a2018000fea090006ea09000e9
:10106800a101880003087800a2018800e3ff2f008f
:1010780021e7280001af98001100200011af980067
:10108800a20180009ea890000ea89000a1018800ef
:1010980003087800a2018800c2fe2f0041e728005b
:1010a80021af98001100200031af9800a101800005
:1010b800bea990002ea89000a3018800020878001d
:1010c800a101880072fe2f0061e7280041af980057
:1010d8001100200051af9800a0018000dea9900007
:1010e800cea89000a301880082087800a00188009b
:1010f800b2ff2f0081e7280061af9800110020009f
:1011080071af9800a0018000fea99000eea89000a1
:10111800a301880082087800a0018800020120004d
:10112800a1e7280001b798001100200011b7980026
:10113800a00180009eb190008eb09000a3018800ad
:1011480082087800a001880012012000c1e7280069
:1011580021b798001100200031b79800a001800045
:10116800beb19000aeb09000a3018800820878005c
:10117800a001880012002000e1e7280041b798008c
:101188001100200051b79800a0018000deb1900046
:10119800ceb09000a301880082087800a0018800e2
:1011a8004f0678004f05be004f04be000080fa00cd
:1011b800000006000c00fa00889fbe008a9fbe004f
:1011c8008c9fbe00360107003bfd0700011021007f
:1011d800010f780001002000110798001e00be00d2
:1011e8000000780040028800e117210021079800dc
:1011f80001002000310798002e009000be009000ea
:1012080000007800500288003102800000ff2f00a3
:10121800008060000030a0003002880001e0280053
:101228004107980011002000510798004e009000d7
:10123800de0090000000780060028800ece72800db
:101248001d0020000c00be0000007800700288001d
:1012580031028000f0f02f0080806000000a20003a
:101268000100700030028800000000000810210012
:101278000ae028000a1021000b0020000a808800dc
:101288001b80880008e028001900200028808800ba
:101298003980880002fd07002023a800156ea900e8
:1012a800154ea90000172100110020002e0207008a
:1012b8000060fe00feff37000000fa00a0172000c3
:1012c800101288001000200020128800c00028009a
:1012d800001288000080fa00000006000400fa00ee
:1012e800000f78001107980000000000001280002d
:1012f800620060000000e000fcff3a00111280006c
:1013080000402000008060000000e00002003a0079
:101318000000eb000100370010002000e10f500032
:1013280004003a001e00780010007800401288007f
:10133800050037001e007800104078000080fb0090
:101348004012880000000000011280000002200006
:10135800008060000000e000fbff3a0011128000ee
:1013680000402000008060000000e00002003a0019
:101378000000eb000100370010002000e10f5000d2
:1013880004003a001e009000411280000108780015
:101398000400370040128000804078001e00900052
:1013a800014878000080fa00000006001a00fa00e0
:1013b800200f9800310f9800420f98000000eb00b2
:1013c800000f78000000eb00100798000000eb0009
:1013d800000f98000000eb00100f98001112800019
:1013e80000402000008060000000e00002003a0099
:1013f8000000eb0001003700100020007007980083
:101408007e009000e10f500006003a002000200006
:10141800400798003e0890000000d100300f980067
:101428000200370010002000400798002e089000a6
:101438000000e00005003a000000eb00600798009b
:10144800720047002007980004003700ce00900083
:1014580061079800ae089000210798004e08900098
:101468000000e00005003a000000eb00500798007b
:10147800700047003007980005003700ce00900044
:1014880051079800ce08900031079800000000002e
:1014980000128000620060000000e000fcff3a00db
:1014a8002d0037001e009000e70f500013003e008b
:1014b8007e009000e10f500004003a002e009000da
:1014c8001000780040128800040037002e009000b9
:1014d800104078000080fb0040128800ae009000a9
:1014e8006e00900000804000200798001e0fe80062
:1014f8001e0090000000e80010079800011280000c
:1015080000022000008060000000e00012003a00a5
:101518007e009000e10f500004003a003e00900069
:101528004112800001087800040037004012800052
:10153800804078003e00900001487800be0090008e
:101548005e00900000804000300798001e00900068
:101558000000e900100798003e0890009e007800ff
:10156800808f5000cfff390017003700011280002c
:1015780000022000008060000000e00012003a0035
:101588007e009000e10f500004003a003e009000f9
:1015980041128000010878000400370040128000e2
:1015a800804078003e00900001487800be0090001e
:1015b8005e00900000804000300798001e009000f8
:1015c8000000e900100798001e0090000000e000ed
:1015d800e6ff3a001e0078000080fa0000000600ce
:1015e8000400fa00204798000e80e8008e0078007a
:1015f8003aff07001e4078000080fa00000006004d
:101608000600fa00000f78001107980022079800da
:101618002e0190009e0090001e00780063ff0700d6
:101628000080fa00000006000000fa001112800095
:1016380000402000008060000000e00002003a0046
:101648000000eb0001003700100020000080fa00c5
:10165800000006000000fa00001280000080fa0076
:10166800000006000000fa00c3e8a800000000001f
:10167800000000000080fa00000006000200fa00e6
:10168800000f780021028000200f200000806000f9
:101698001e007000200288000080fa00000006008a
:1016a8000000fa001d0107000800070047010700b5
:1016b800a500070000ff0700eaff0700000220005e
:1016c800eeff07000080fa00000006000000fa00a4
:1016d8000001eb0060042000710520002374200045
:1016e8008049780081497800824978000000230009
:1016f800203a88004827ef004e27ef00900420008a
:10170800303a88004420a90044c0a90044e0a90058
:101718004480a9004027ef000080fa00000006007e
:101728000000fa00003a80000080fa00000006007d
:101738000200fa00faff0700000f78001e00780088
:10174800240007000004e000020032000000280026
:10175800710007001e0078002a0007000004e0005e
:1017680002003200000024006b0007001e00780011
:10177800320007000004e0000200320000202000d0
:10178800650007001e0078003a0007000004e0002a
:1017980002003200000820005f0007001e007800e9
:1017a800420007000004e0000200320000042000ac
:1017b800590007001e0078004a0007000004e000f6
:1017c8000200320000012000530007000080fa00e8
:1017d800000006000400fa00100798000040eb0023
:1017e800004f78001e0090000000e00002003d005d
:1017f80010c0b300004f78001e4078000080fa0047
:10180800000006000400fa00100798000040eb00f2
:10181800004f78009e0090000000240000806000c7
:101828000000e0000200320010c0b300004f780052
:101838001e4078000080fa00000006000400fa004c
:10184800100798000040eb00004f78009e009000c1
:1018580000202000008060000000e000020032004c
:1018680010c0b300004f78001e4078000080fa00d6
:10187800000006000400fa00100798000040eb0082
:10188800004f78009e009000000820000080600053
:101898000000e0000200320010c0b300004f7800e2
:1018a8001e4078000080fa00000006000400fa00dc
:1018b800100798000040eb00004f78009e00900051
:1018c80000042000008060000000e00002003200f8
:1018d80010c0b300004f78001e4078000080fa0066
:1018e800000006000400fa00100798000040eb0012
:1018f800004f78001e009000700060000000e000bb
:101908000200320010c0b300004f78001e4078007b
:101918000080fa00000006000200fa00000f7800bc
:101928009e80ea00003a800000806000003a88004b
:101938000080fa00000006000000fa004027ef00cf
:101948000080fa00000006000000fa00407e28002f
:10195800001988002223ef0030f1210020198800a7
:101968002823ef002e23ef003023ef002623ef007b
:10197800101980004200de007f40600008f0b700c8
:1019880021a8a8000080fa0000000600809fbe0081
:101998003200f8003400f80010002000a001880090
:1019a8001000200090018800000000000000fa00ec
:1019b800a07080004b00de00614060000004a200bf
:1019c800614060000080fb00610060004b00dd00aa
:1019d800a170800001b0a10001007000a070880013
:1019e800154ea8002023a80047e0a80047c0a8007b
:1019f8000000000000808000000478000ae0280051
:101a080000188000000c7800c605c3003f000900dc
:101a1800c605c0009080c7000800780000808800d4
:101a2800000028008d0668000d00780050808800ae
:101a380047e0a90047c0a90000000000154ea90012
:101a48000000000000128000620060000000e0005a
:101a5800fcff3a000001200040128800000000004e
:101a680000128000620060000000e000fcff3a0005
:101a7800508080004800de0040128800000000000e
:101a880000128000620060000000e000fcff3a00e5
:101a980051808000f00f2000008060004012880014
:101aa8000000000000128000620060000000e000fa
:101ab800fcff3a0001a8a9000080fa003400f900f0
:0c1ac8003200f9004f00be000040060094
:020000040000fa
:101ad4000e10000020000000800000000c10000028
:101ae4000200000082000000ffff00000810000058
:101af4000400000080000000008e00008000000050
:101b04008000000000110000800000008000000040
:101b14000010000008000000800000000000000029
:020000040000fa
:101b24000000fa00042eef00142eef00f001200054
:101b340000708800f0272f00807088000c2eef00c2
:101b44001c2eef000a2eef001a2eef00062eef00d7
:101b5400162eef003001200070708800c0002000b5
:0c1b6400f07088000080fa00000006000d
:020000040000fa
:101b7000f03fb1000180b10006003500ee0309001e
:101b800000000000403fb1000180b100fbff3d00bc
:101b90001000b000203fb0000200350000800900b6
:081ba000000000000000060037
:020000040000fa
:101ba800000f78009e00780061808800ffff3700f2
:101bb8000000fa00e00021008007780060022100a0
:101bc800000188000080fa00000006000000fa000a
:101bd80031428000f0f82f00008060000040a00033
:0c1be800304288000080fa000000060077
:020000040000fa
:020000040005f5
:045fe000cdff0000f1
:020000040000fa
:020000040005f5
:045fe400cfff0000eb
:020000040000fa
:020000040005f5
:045fe8007fff000037
:020000040000fa
:020000040005f5
:045fec00bfff0000f3
:020000040000fa
:020000040005f5
:045ff000f9ff0000b5
:020000040000fa
:020000040005f5
:045ff400ffff0000ab
:00000001FF
